:020000040800F2
:10000000200E00203D010008951300087112000821
:1000100000000000000000000000000000000000E0
:10002000000000000000000000000000CD1C0008DF
:100030000000000000000000FB000008C11E0008D6
:100040004F010008000000004F0100084F010008A8
:100050004F0100084F0100084F0100084F01000840
:10006000000000004F0100084F0100084F01000888
:100070004F0100084F0100084F0100080000000078
:10008000F11F00080000000000000000791F0008B8
:10009000000000004F0100084F0100084F01000858
:1000A000000000004F010008000000004F010008A0
:1000B0000348854600F0E6FB00480047792C00081D
:1000C000200E0020084B19680868203080F309884A
:1000D000022080F31488BFF36F8F3FBCAE4608BC8C
:1000E00004BC62B61847000034000020EFF3108013
:1000F00072B6704780F310887047EFF309800E4B9B
:100100001A6820381060F0C044464D4656465F4697
:10011000F0C008B572B603F055FA62B60CBC1168AF
:1001200008681030F0C8A046A946B246BB4680F326
:1001300009882038F0C81847340000200448804758
:1001400004480047FEE7FEE7FEE7FEE7FEE7FEE7BE
:10015000C91E0008B100000830B50B46014600205A
:100160002022012409E00D46D5409D4205D31D46BD
:100170009540491B2546954040191546521E002DB5
:10018000F1DC30BDF8B502464A40D40F42004B00C6
:1001900052085B089A4202D20246084611464A00BB
:1001A00023D0C30D4A00DDB2120EAD1A202D35DA70
:1001B00049020126490AF6058A19002C00D052424C
:1001C00020214F1B1146B9402A411018C20D9A42F6
:1001D00021D0002C17D0012D08DCDA05801AD20FAF
:1001E0008019D207DBB200F04DF9F8BDDA05801AAC
:1001F000012340001B06C01880185A428018CA0FFD
:100200001043490007E04908C2071143DA05801A84
:1002100080194008801800F02DF9F8BD6100012216
:10022000511A001BF7E70122D2075140AAE7012229
:10023000D2075040A6E7024670B54A40D30FDB070D
:1002400040002DD04A002AD0010E140E00021202E6
:100250000919400A520A8418E50104465443000A69
:10026000120A2E045043A4194219200CC543AA189F
:10027000120C0125AD03521C521912047F392404BB
:1002800000D0521C104301D44000491EC2B20C06DB
:10029000C0092018401C4008802A02D003E000203A
:1002A00070BD40084000002900DA0020184370BDEE
:1002B00070B502464A40D50F40004A00ED0740089D
:1002C0005208002814D0002A12D0C40DD30D4102C8
:1002D0000120C0055202490A520AE41A09181218EC
:1002E0007D34914201D3641C00E04900002C01DA06
:1002F000002070BD0023914201D3891A03434008B6
:1003000049000028F7D100290AD0914202D10121E9
:10031000C90705E0914201D2012101E00121C94351
:10032000E005C018401900F0A5F870BD420005D0E6
:100330004200120E52428A4201DB00207047C9057A
:1003400008187047C217C10F504010B54018CA07AF
:100350009623002100F096F810BD10B500229623D8
:10036000114600F08FF810BDC20F4100400201237A
:10037000400ADB05D207090EC0187F2901DA0020E8
:100380007047962903DC9623591AC84001E0963934
:100390008840002AF4D040427047410040020122C8
:1003A000400AD205090E80187F2901DA0020704723
:1003B000962903DC9622511AC84070479639884026
:1003C0007047C20FD207400040080BD0C10D072371
:1003D000DB01C91840020905400A1143C208400761
:1003E0001143704700200146704700000122D207E8
:1003F000002800DB101A002900DB511A81427047E7
:100400000122D207002800DB101A002900DB511A54
:1004100088427047F0B51FB40646002082B00546FA
:100420004024019100901BE0019922460F4630467E
:1004300000F04AFA049A059B801A994110D310469D
:100440001946224600F030FA361A8F4101972246AB
:1004500001200021009F00F027FA38184D4100903C
:100460002046641E0028DFDC019B009829463246A6
:1004700007B0F0BD002904DA401C490001D1400852
:100480004000704770B40024050C05D1102400040E
:1004900002D1002921D01124050E01D10002083417
:1004A000050F01D10001241D850F01D18000A41C7E
:1004B000002801DB4000641C002908D020252E1BE9
:1004C0000D46F540A14000D0012129430843010613
:1004D0001B1B000ADB1D02D5002070BC7047DB052A
:1004E000181880180029F8DA401C4900F5D170BCB2
:1004F0004008400070470000F0B5074608465840E5
:1005000087B0C00F049048000E46590040084908C3
:10051000BC1A884105D2384631461E4617460B465E
:1005200002465800400810434CD0300D039040055F
:100530005900400D490D0590401A0290402872DA8A
:1005400018030121000B090508430190049800924B
:10055000002805D001995242002088410092019064
:10056000029840210A1A0199009800F09DF9054669
:100570000C466B4607CB00F0B8F9C0197141039ADD
:100580000E0D0023D71756401A467A40164344D022
:10059000049A002A2DD0029A012A039A15DC12052A
:1005A000C01A914101263605001C7141D20F059EEB
:1005B000D2070093019202962A46234600F0B5F92D
:1005C00007B0F0BD38463146FAE71605224A0F4615
:1005D000B218C01AB74101210905001C4F4100188B
:1005E0007F41114618187941E20F10436D1964419B
:1005F00013E0E2076D0815436408C2071443039A29
:1006000001261205C01A91413605001C7141CE0722
:10061000400830434908C01851412A46234600F09B
:1006200077F9CDE7FFE7049801224000C117121ABD
:1006300000238B4104983146C417381AA141EEE7D4
:1006400030B40124E407634030BC55E730B40124E2
:10065000E407614030BC4FE70000E0FFF0B51FB495
:1006600088B00B990998002448400999C00F4900A7
:1006700049080991C0070B990090490049080B915E
:1006800009990898A64608431CD00B990A98084374
:1006900018D0099801244000420D4800410D0998E6
:1006A00024050003000B204309900B980003000B66
:1006B00020430B9050181C4940180022019014460A
:1006C000104605E0002001460DB0F0BD032801DA18
:1006D000034600E003239C46C11A0AAE0AE05F000D
:1006E00008ADED5B4F00F75B7D430027AA187C4106
:1006F000491C5B1E6145F2DD410004AB5A522104E6
:10070000120C0A43240C401C0828DFDB01980290DD
:100710000099704601910090059B049A07990698EC
:1007200000F003F9D0E700000DFCFFFFF0B50C4628
:100730005C4085B0E40FE40703944C000026640895
:1007400059009446490802460296224321D0624647
:100750000A431ED06200570D4A000E032303550DB5
:10076000012402462C492405781B1B0B360B40182C
:1007700023432643614600901C46501AB44103D3DC
:100780000098401C009002E0921800985B410028FD
:1007900003DA0020014605B0F0BD00200121090563
:1007A0000746864611E064461D46141BB54106D334
:1007B0006546521BB341744607430C43A646CD071A
:1007C00040084908284392185B4105460D43EAD189
:1007D0001046184313D060461946504071400843F4
:1007E00006D06046101AB34106D20122002306E06B
:1007F00000220123DB0702E00122D24353100098BC
:1008000074460105381C6141029C039D0019694131
:1008100000F07EF8BFE70000FD0300004A00090376
:100820000123090B1B0519430A4B10B5520D9A42BF
:1008300002DA0020014610BD064B34339A4203DC35
:100840009A1A00F041F810BD034BD21800F02CF8B2
:1008500010BD0000FF030000CDFBFFFF10B5002915
:1008600004DB0124E40740428C412146002B04DBD9
:100870001C460123DB075242A341994200D190421A
:1008800010BD0000064C0125064E05E0E36807CCCC
:100890002B430C3C98471034B442F7D3FFF70CFCC1
:1008A000383F0008583F000810B5202A04DB0146F5
:1008B000203A9140002010BD914020239C1A03460D
:1008C000E3401943904010BD10B5202A04DB0846D0
:1008D000203AD040002110BD0B46D340D040202408
:1008E000A21A91400843194610BD10B5202A06DB14
:1008F000CB170846203A1041C1170B4306E00B46C0
:100900001341D0402024A21A91400843194610BD3B
:1009100010B5002B08DA0024401C614192185B419D
:100920001A4301D14008400010BDF0B51FB482B099
:1009300005460C0003D0084601F07AFC02E001F005
:1009400077FC20300246009021462846FFF7ACFF96
:10095000049B059A04460F4618431143084314D0DC
:10096000184610431BD0009840210A1A18460599D2
:10097000FFF7AAFF05460E46009A05990498FFF76F
:1009800093FF084305D0012004E02046394607B014
:10099000F0BD0020C11705430E432C433743009997
:1009A0000E986305401A7905E40A00220C43FD0AFB
:1009B0000A3002D500200146E9E701051019694116
:1009C0000C9C0D9D00196941FFF7A2FFDFE7836AC8
:1009D0000B4383624261704701617047002981685F
:1009E00001D0012200E00222114381607047000023
:1009F000F0B53F4D93B0284600F092F8012148042D
:100A000001F04EF80121480201F062F8690528461C
:100A1000FFF7E2FF0121084601F042F80121022020
:100A200001F04AF80E200690032669460E7706A9C3
:100A3000680400F0D1FB2F4F384600F029FA2C480B
:100A40000024403008902C4809A951C180200D9005
:100A500040000E9080000F90202010900C94000217
:100A6000119008A91294384600F072FA0121384614
:100A700000F002FA684600F036F901206946009459
:100A80000871C00202904020039004940594284607
:100A900000F004F90121284600F016F90122022194
:100AA0002846FFF794FF012204212846FFF78FFF15
:100AB000012208212846FFF78AFF284600F040F867
:100AC0000221284600F024F80121284600F016F8FB
:100AD00001212846FFF782FF0121284600F047F850
:100AE0000028F9D0284600F0F9F813B0F0BD000056
:100AF0000024014008000240840000200029C16851
:100B000002D00122114301E049084900C160704749
:100B1000C26802239A43C260C2680A43C260704737
:100B2000064910B5884208D144150121204600F03D
:100B3000DBFF0021204600F0D7FF10BD002401405C
:100B4000826800210123DB071A4382600F231B0305
:100B50008268491CD20FD207994201D0002AF7D1EE
:100B60008168002901DB006C704700207047024655
:100B70000020CB0104D5926801231B069A4300E0B4
:100B800012680A4200D0012070470000FEB500251F
:100B90002E4637461F243D486100081882880146CA
:100BA000C28080318B880193CB8040308188009156
:100BB000C1801046FFF7D1FB2946FFF7E3FA05464F
:100BC0000198FFF7CAFB3146FFF7DCFA06460098AA
:100BD000FFF7C3FB3946FFF7D5FA641E2404074626
:100BE000240CD8D1294A1088D080518814468034EA
:100BF0000191E180918840320091D180FFF7ADFBF7
:100C00002946FFF7BFFA05460198FFF7A6FB3146D4
:100C1000FFF7B8FA01900098FFF79FFB3946FFF7FE
:100C2000B1FA064604212846C943FFF77FFB184D59
:100C30002968FFF700FBA0640421C9430198FFF76E
:100C400075FBA968FFF7EFFAE968FFF7F4FA0746C2
:100C5000206504213046C943FFF768FB6968FFF748
:100C6000EAFA0C4E0546E064B74201D2206D01E07D
:100C7000002020650849FFF7DEFA2946FFF7D7FA7A
:100C8000E064B04201D30020E064FEBD8400002097
:100C9000F001002000008080CDCC4C3D30B5C26812
:100CA000084B8C681A400B680D792343CC686D03A0
:100CB0002C4323430C69496923430B431343C3600B
:100CC00030BD000003D2FFFF012212030029C168DA
:100CD00001D0114300E09143C16070478168042254
:100CE0001143816070470021016001718160C16022
:100CF00001614161704700001CB500242546019444
:100D000000F094FB10260A2340A200211820009630
:100D100000F061FD0D2340A203210020009600F0A9
:100D20005AFD00F06BFE40484088FFF716FBFD219E
:100D30008905FFF780FAFFF730FB81B23B4841633A
:100D40003B4F7888FFF709FB3A49FFF774FA0646EC
:100D500039492846FFF76FFA3146FFF713FA05467F
:100D6000B888FFF7FAFA3349FFF765FA06463249C1
:100D70000198FFF760FA3146FFF704FA019000F09E
:100D8000C7FA012822D110260920C0068661002C4E
:100D900004D0012C0DD0022C1DD014E001242748D2
:100DA0000199FFF785FA26490D23486025A2009690
:100DB00005E02348022485600D2326A20096032126
:100DC000002000F008FD274801F0B4FEFF20F530B8
:100DD00001F0B0FEB5E71A4C2846A168FFF723FAE8
:100DE00001462148FFF764FAE060104800214163A2
:100DF0001E4801F09FFE00F06BFFBFF34F8F1D49AF
:100E00001B48C860BFF34F8F00BFFDE743616C69AB
:100E100062204D6F646500004275636B20566F75EC
:100E2000742031355600000058010020002C01408C
:100E3000840000209A99993E3333333F0A00704171
:100E4000F00100204275636B20496F7574203041BA
:100E5000200000004275636B20496F757420324199
:100E600020000000C0D401002A00004020A107009B
:100E70000400FA0500ED00E00029016802D001221B
:100E8000114301E0014A114001607047FEFF00007C
:100E9000F0B501682B4A11400160002101604160FA
:100EA0008160C1602849284A08390F2390422DD01B
:100EB000254AF024143290422FD0234A1D022832B2
:100EC000904231D0204E1A033C36B04203D14868DC
:100ED00015E04860F0BD1C4F0F2650373604B8426D
:100EE0002DD0194F6437B84202D14868320106E06C
:100EF000154F7837B84204D148680F2212061043C4
:100F0000E7E71249114F0839B84202D1486818433F
:100F1000DFE70E4B1433984202D148682043D8E7EC
:100F20000A4B2833984202D148682843D1E7074B3F
:100F30003C339842CBD0054A50329042CAD14868DF
:100F40003043C6E7FEFF00000800024008040240EC
:100F500030B503680C4A0C6A13408A684D69224315
:100F60000C692C4322438C692243CC6922434C6A8E
:100F700022438C6A22431A430260CA6842600A68AC
:100F800082604968C16030BD0F80FFFFF8B5092756
:100F9000FF06388A2F4E800604D4388A400601D4D2
:100FA000012053E0388A2C4D8106AC7868680090A7
:100FB00024D5388A400621D5707800281ED010200C
:100FC000B86101206870002C0CD0A8680099FFF768
:100FD000D9F82249A860884200DD08462049086007
:100FE000A8600BE0E8680099FFF7CCF81D49E860BD
:100FF000884200DD08461C490860E860388A80069F
:1010000023D5388A400620D4707800281DD01020BF
:10101000B8610120154F6870002C0BD0A8680099AA
:10102000FFF701F9A860B84200D300200C4908601E
:10103000A8600AE0E8680099FFF7F5F8E860B842B0
:1010400000D3002008490860E8600020707000208C
:10105000F8BD0000150000207400002000004A4286
:101060006401002000000841A001002000008080F1
:101070000149C8607047000000200240F0B50B270E
:1010800006463F04384600F067F804280FD1084CA4
:1010900020690225284320616661206940210843B8
:1010A0002061384600F058F82169A9432161F0BD5C
:1010B0000020024008490420CA68D20701D001205C
:1010C0007047CA68D20601D502207047C96849072F
:1010D000FBD5032070470000002002400248016950
:1010E000802211430161704700200240F8B5064696
:1010F00000200B273F0400900D46384600F02CF8E6
:10110000042815D10B4C206901210843206135804A
:10111000384600F021F8042806D1B61C290C0096A8
:101120003180384600F018F82169490849002161EA
:10113000F8BD00000020024004480169090603D5FB
:1011400003494160034941607047000000200240AC
:1011500023016745AB89EFCD00B50346FFF7AAFF32
:1011600002E0FFF7A7FF5B1E012803D0002B00D190
:10117000052000BD002BF4D1FAE700001CB502F0F9
:1011800087F90024012000902346802209A10194C0
:101190000C4802F06DFA02200090002380220AA180
:1011A00001940C4802F064FA02F07EF902F0DCF9D6
:1011B0001CBD00004D59444953504C4159544153B2
:1011C0004B000000792E00084D59494E50555441AE
:1011D000534B0000512F0008F0B5002203250123D6
:1011E0000C6893401C409C422AD10C79012C01D000
:1011F000022C12D1876854002E46A640B743876060
:101200004E79A64084682643866084889C43848007
:1012100084888B7993401C438480066853002C4655
:101220009C40A64306600E7907689E403E430660D8
:10123000C668A643C660CC799C40C3681C43C460A2
:10124000521C102ACBD3F0BD4B07DB0E9A40C908C5
:1012500010B589000818016A0F249C40A14301625F
:10126000016A1143016210BD0185704781617047B9
:10127000FEE70000FEB50121480400F011FC012149
:10128000880400F00DFCC320400100900024684653
:1012900004710326467101250927C571FF066946B9
:1012A0003846FFF799FF6846009504714671C5718D
:1012B00069461148FFF790FF10213846FFF7D4FF29
:1012C000102000906846057184714671C4716946AA
:1012D0003846FFF781FF094809494470857041602D
:1012E000084904700968C1600749096881600748B6
:1012F00001F020FCFEBD0000000400487400002046
:10130000CDCCCC3DA00100206401002050C30000E2
:1013100000200921C9060A8A120501D4012009E02A
:10132000098AC90401D4022004E00A49098AC907CC
:1013300000D1032008490A78002A04D0002804D0EC
:1013400000220A707047002801D1FF200870002099
:101350007047000000040048150000201CB5012162
:10136000880400F09DFB0A4C32212046FFF77EFFE7
:101370003220009001206B461871002199710322E0
:101380005A71D97169462046FFF726FF1CBD00003F
:10139000000400487047000030B5827801240178CD
:1013A000002A15D08B080E4A9B009A1813688907EB
:1013B000C90EFF258D40AB434578AD072D0E8D40FE
:1013C0001D4315600078C006C00E8440054804E047
:1013D000C806C00E844003488030046030BD000061
:1013E00000E400E000E100E08307FF22DB0E9A400A
:1013F0008907090E994000280BDA0007000F08380A
:10140000830808489B001818C36993430B43C361C2
:101410007047830804489B001818036893430B43E4
:101420000360704700ED00E000E400E070B50025C7
:101430002846B030C0B2002100F010FA0021084662
:1014400000F00CFA0021102000F008FA00244021DE
:10145000002000F003FA641CE4B2802CF7D36D1C6A
:10146000EDB2082DE4D370BD10B501F051FD374C3D
:10147000204601F05FFB0021AE2000F0EFF90021D3
:10148000084600F0EBF90021102000F0E7F90021F8
:10149000402000F0E3F90021B02000F0DFF9002146
:1014A000812000F0DBF90021FF2000F0D7F90021B6
:1014B000A12000F0D3F90021A62000F0CFF90021EF
:1014C000A82000F0CBF900213F2000F0C7F900214F
:1014D000C82000F0C3F90021D32000F0BFF900219B
:1014E000084600F0BBF90021D52000F0B7F9002133
:1014F000802000F0B3F90021D82000F0AFF90021DE
:10150000052000F0ABF90021D92000F0A7F9002157
:10151000F12000F0A3F90021DA2000F09FF900216A
:10152000122000F09BF90021DB2000F097F9002148
:10153000202000F093F9204601F0FCFAFFF776FF37
:1015400000F056F800F004F810BD0000A08601007D
:1015500008B510200C23009021A20021184600F0AD
:101560003AF901220321002000F096F8022203211B
:10157000102000F091F810233A220321202000F0DF
:1015800063F80123002203212C2000F0ABF8102384
:1015900056220321642000F057F810233E22032135
:1015A0006C2000F051F801220621002000F074F8B0
:1015B00003220621102000F06FF810233A220621A2
:1015C000202000F041F80123002206212C2000F009
:1015D00089F8102341220621642000F035F808BD67
:1015E0004275636B20436F6E766572740000000075
:1015F00010B500218D2000F031F90021142000F0F9
:101600002DF90021AF2000F029F910BD034601207B
:1016100000E058430A46491EC9B2002AF9D1704772
:1016200070B5B031CAB2040905072D0F002110466C
:10163000103400F013F90021204600F00FF90021CA
:10164000284600F00BF970BDFFB581B0203A0F4677
:101650000024D5B20198FFF7E3FF0E4E2D012819A3
:10166000305C402100F0FAF8641CE4B2082CF6D398
:101670007F1CF9B20198FFF7D3FF002428198019C5
:10168000007A402100F0EAF8641CE4B2082CF5D39B
:1016900005B0F0BD48380008F8B515460E460746B7
:1016A000FFF7BEFF0E490024A8014518285D402120
:1016B00000F0D4F8641CE4B2102CF7D3761CF1B21D
:1016C0003846FFF7ADFF002428192030007840216C
:1016D00000F0C4F8641CE4B2102CF5D3F8BD00008F
:1016E000383E0008F8B50F4604461E46154604214C
:1016F0000A20FFF78BFF01462846FEF72DFD0A2141
:10170000FEF72AFD002903D03031CAB2102306E0CB
:10171000002E02D01023202201E010232D22394672
:101720002046FFF791FF03210A20FFF76FFF0146D4
:101730002846FEF711FD0A21FEF70EFD3031204646
:10174000CAB20830C0B210233946FFF77DFF2046E9
:101750001030C0B210232E223946FFF775FF022148
:101760000A20FFF753FF01462846FEF7F5FC0A2141
:10177000FEF7F2FC30312046CAB21830C0B2102356
:101780003946FFF761FF01210A20FFF73FFF0146BD
:101790002846FEF7E1FC0A21FEF7DEFC3031204648
:1017A000CAB22030C0B210233946FFF74DFF0021E6
:1017B0000A20FFF72BFF01462846FEF7CDFC0A2141
:1017C000FEF7CAFC3031CAB22834E0B210233946E1
:1017D000FFF73AFFF8BDF8B51D4616460F4604461A
:1017E0000DE0327839462046069BFFF72DFF08347E
:1017F000E4B2782C02D90024BF1CFFB2761C284624
:101800006D1EEDB20028ECD1F8BD00003EB50C46CF
:10181000FEF7D7FD02460B460EA101A800F0F4FC2E
:101820001025062301AA03212C200095FFF7D3FFE2
:101830002046FEF7C6FD02460B4606A101A800F0B1
:10184000E3FC062301AA19462C200095FFF7C3FFED
:101850003EBD000025322E346600000070B50D46F6
:10186000044601F0B1F9782001F07CF901F0E8F9C3
:10187000284601F077F901F0E3F9204601F072F90A
:1018800001F0DEF901F0BEF970BD0000F8B51D48A9
:1018900001F0E8FB1B4C1D4F1B4E41206761000609
:1018A000A66320610020A06119481A4D2060042021
:1018B000285EFEF747FD60630620285EFEF742FDC6
:1018C0002063204601F09DFB20463C3001F0CAFB1E
:1018D0003C3467611048A66320610020A0610C4879
:1018E00020600420285EFEF72DFD60630620285E40
:1018F000FEF728FD2063204601F083FB00F0BEF8D0
:10190000F8BD00006401002017B751380AD7233C06
:101910000000A0405801002000006841F0B50121FE
:101920008BB0480400F0BCF8FF2081300390022106
:101930006846017403214174002409258474ED066E
:1019400003A92846FFF748FC022207212846FFF793
:101950007BFC022208212846FFF776FC0121C80201
:1019600000F0B6F868460480FF254480E035019514
:1019700004811E4F84726946384600F00BFC00213A
:10198000384600F05BFB6021684681820126C682F2
:101990000421018307940484082141848484C4843D
:1019A00005A9384600F080FBEF2405A938460794C6
:1019B00000F0BEFB0121384600F040FB0121384613
:1019C00000F048FB00F028F80121384600F04CFBFD
:1019D000074F08487D803C80FEF7C6FCF88006482B
:1019E000FEF7C2FCB8803E720BB0F0BD002C014087
:1019F000580100206686E343AE47194110B5002127
:101A0000034800F08FFB03490020087210BD00005E
:101A1000002C01405801002010B505490120087232
:101A2000044800214163022100F07CFB10BD00004E
:101A300058010020002C014010B50E4C0021227AE4
:101A4000002A01D0012010BDFF22D205D04202D2CF
:101A5000FEF78AFC01B20620205E884200DA0146C9
:101A60000420205E884200DD014688B202494863B6
:101A7000002010BD58010020002C01400648002124
:101A800001738160C1734173817301744174034AAE
:101A900006C0817270470000DC010020983A000007
:101AA000044A0029516901D0014300E0814351619A
:101AB0007047000000100240044A0029D16901D09B
:101AC000014300E08143D1617047000000100240F3
:101AD000044A0029916901D0014300E081439161EA
:101AE0007047000000100240044A0029D16801D06C
:101AF000014300E08143D1607047000000100240C4
:101B0000124801680122114301604168104A1140E6
:101B1000416001680F4A114001600168012292048E
:101B20009143016041683F22120491434160C16AC0
:101B300009090901C162016B074A11400163416B48
:101B4000490849004163002181607047001002404C
:101B50000CB8FF08FFFFF6FEACFEF0FF03460020C6
:101B60000A4A59090CD001290CD002290CD0516B1A
:101B7000DA06D20E012393400B4200D001207047B9
:101B80001168F5E7116AF3E7516AF1E700100240C6
:101B9000034A5168F02399430143516070470000A4
:101BA00000100240024900228A70887070470000CD
:101BB0000010024005490028086802D001221043A5
:101BC00001E040084000086070470000001002403B
:101BD000034A516807231B02994301435160704730
:101BE000001002400122054912060028086801D0B1
:101BF000104300E09043086070470000001002406E
:101C000010B5054A53687B24E403A343536053682B
:101C100008430343536010BD00100240034A51685B
:101C2000890889000143516070470000001002409C
:101C300070B50F480068FEF790FB0E4D2946FEF781
:101C400037FB0D4C606020600948001D0068FEF7FE
:101C500084FB2946FEF72CFBA0600548083000688D
:101C6000FEF77BFB2946FEF723FBE06070BD00001A
:101C7000006400080050C347F001002070B509243B
:101C8000E406208A00051AD5208AC00417D40C4E19
:101C9000308AC00713D10B4800F04CFF1025A56116
:101CA000094800F047FFA561208A000507D5208A72
:101CB000C00404D4308AC00701D1FFF71DF870BDFD
:101CC0000004004840420F00A08601007047000059
:101CD000F8B50024FFF730FA3420FFF7C9F92A4895
:101CE000FFF7CCF909261025F606042809D0274C61
:101CF0000227B561A08A7840A082254800F01AFF2B
:101D0000F7E7244F24497868FEF795FAFEF745FB7C
:101D100001461D48FFF7EAF9042800D101241E49B5
:101D2000B868FEF788FAFEF738FB01461648001D32
:101D3000FFF7DCF9042800D1641C1749F868FEF7A6
:101D40007AFAFEF72AFB01460F480830FFF7CEF972
:101D5000042800D1641CFFF7C1F9032C09D00B4CF7
:101D60000227B561A08A7840A082094800F0E2FE0F
:101D7000F7E7B561094C204600F0DCFEB56120466E
:101D800000F0D8FEF8BD0000006400080004004820
:101D900000350C00F00100200050C347C0D4010002
:101DA0001CB500232248009301930168012212040C
:101DB0001143016051000524240302680A40019286
:101DC000009A521C0092019A002A02D1009AA24263
:101DD000F3D10168890328D501210191154A112108
:101DE0001160416841604168416041687F22D203CF
:101DF000914341604168112212041143416001681E
:101E0000012212061143016001688901FCD5416875
:101E1000890889004160416802221143416041689C
:101E20000907890F0229FAD11CBD01931CBD0000CE
:101E3000001002400020024070B5FFF761FE012053
:101E4000FFF7B8FE0120FFF789FE0028FAD0012035
:101E5000FFF7A8FE1120FFF781FE0028FAD01549F0
:101E6000112008600020FFF793FE0020FFF7B0FE6E
:101E7000012109050811FFF7C3FE0120FFF7B2FE9B
:101E80001920FFF76BFE0028FAD00220FFF7C6FEEC
:101E90000A4C0948606103210D1F2846FFF7A4FA88
:101EA0000020A0610720206100212846FFF79CFA4E
:101EB00070BD0000002002407FBB000000E000E099
:101EC00010B501F08FF810BD10B51448016801225B
:101ED000114301604168124A114041600168114A92
:101EE0001140016001680122920491430160416840
:101EF0003F22120491434160C16A09090901C1628C
:101F0000016BFF22543291430163416B4908490040
:101F1000416300218160FFF743FF10BD00100240C4
:101F20000CB8FFF8FFFFF6FE1FB501210802FFF70E
:101F3000C3FD632001902F206A461080002010818D
:101F40000C4C50806946204600F024F913216A4663
:101F5000117301215173917303A8FFF71DFA012238
:101F60001146204600F098F80121204600F072F852
:101F70001FBD00000020004010B5074C0121204685
:101F800000F07EF8002805D00121204600F05FF81F
:101F900000F08CFE10BD0000002000401FB50121A4
:101FA0000220FFF789FD132001900F486A46108038
:101FB000002010810D4C50806946204600F0EAF860
:101FC00010216A461173022151730121917303A8F4
:101FD000FFF7E2F901221146204600F05DF80121E9
:101FE000204600F037F81FBDBF120000000400407B
:101FF00010B50F4C0121204600F042F8002816D001
:102000000121204600F023F8FEF7C0FF0920C0069A
:10201000808AC0060BD507490878401CC0B20870FA
:102020001E2804D90020087003491020088110BD23
:1020300000040040140000202000004880220029F5
:10204000018801D0114300E0914301807047C943EA
:10205000018270470029018802D00122114301E06A
:10206000490849000180704740300029818803D029
:102070000122D203114301E04904490C81807047D9
:102080000246138A002092890B400A40002B02D09E
:10209000002A00D001207047002A828901D00A431B
:1020A00000E08A438281704770B5028C520852006A
:1020B0000284048C8288038B7025AB439B080D88B7
:1020C0009B001D4302239C438E894B882643104C62
:1020D0003343A04208D00F4CA04205D00E4CA04282
:1020E00002D00E4CA0420DD10824A343CC891C433E
:1020F00004239C438B882343094C22400C8A1443BD
:102100004A8A22438280058389684163038470BDC3
:10211000002C0140004001400044014000480140C3
:10212000FFFC0000028C02239A430A43028470479A
:1021300030B5028C124B1A400284058C8288838B46
:10214000104C23400C782406240C1C430E4B1D40DD
:102150000B7B1B071B0C2B438D782D072D0C1D4370
:102160000A4B984205D10A4B13400A8A9205120C79
:102170001A438280848389680164058430BD00002D
:10218000FFEF0000FF8C0000FFDF0000002C01408B
:10219000FFBF000010B50288144B984206D00124FE
:1021A000A407A04202D0124CA04203D17024A24343
:1021B0004C8822430F4CA04203D00F4C22400C8984
:1021C000224302804A68C2620A880285984208D087
:1021D0000A4A904205D00A4A904202D0094A9042E7
:1021E00001D1897A01860121818210BD002C014034
:1021F0000004004000100040FFFC000000400140CF
:1022000000440140004801400FB410B504A9074B39
:1022100002AA039800F0ECF8044602A9002000F09E
:1022200083FC204610BC08BC04B01847292B0008CA
:102230002021020C01D010211046020A01D01046C4
:102240000839020901D01046091F820801D0104642
:10225000891E420801D0881E7047081A704702E0A4
:1022600008C8121F08C1002AFAD170477047002021
:1022700001E001C1121F002AFBD17047F0B51FB465
:1022800086B00998089A030D0021024314D05148E2
:10229000514A1818504305141198012810981AD063
:1022A000281A401C00264D4F4D490096019104907C
:1022B000002812DA444211E01198012449A30128B0
:1022C00001D11098C1430698119A84600360C260DE
:1022D00041600BB0F0BD4042E4E704462105002018
:1022E0003F4A001C51410391029012E0E00707D0E1
:1022F00032463B4601990098FEF7B0F901910090F3
:1023000032463B4610461946FEF7A8F906460F46E8
:102310006410002CEAD10498039B0028029A0999C2
:10232000089806DAFEF79AF9019B009AFEF796F9EB
:1023300005E0FEF7FBF9019B009AFEF7F7F904466A
:102340000E460022284BFEF789FA03D80020C0432E
:10235000014607E00022254B20463146FEF7CCF827
:10236000FEF75CFA102409E0002C0ADB0A220023A5
:10237000FEF750F8079B30321A55641E02460A4396
:10238000F2D11122641C079B121B1C19119B012BFB
:1023900003D0012308430ED10AE0084304D01120E2
:1023A00010900020119077E71098151A6D1E0BE021
:1023B0001098824202DD00236D1C03E0824201DAA4
:1023C00000236D1E002BEED0069811998260C1602B
:1023D00030C07EE701FCFFFF104D000000001440FC
:1023E0000000F03F300000000000F0430000E03F3C
:1023F000FFB597B00646002518E2252877D10024BE
:102400002746FD49049400E00443761C32780120FD
:10241000203A90400842F7D130782A280ED0022284
:10242000307801463039092916D804990A235943CE
:10243000303940181443761C0490F1E7189802C80C
:1024400004911890002904DA012040030443484213
:10245000049002200443761C30782E2814D10420E6
:1024600004437078761C2A2809D11898761C80C8F5
:10247000189009E00A214F43303FC719761C307885
:10248000014630390929F5D930786C2810D006DC9E
:102490004C281AD068280ED06A2817D104E0742876
:1024A00013D07A2812D110E00120400504430CE03B
:1024B0000121090501E0032109050C4371788142DE
:1024C00003D1012000052418761C761C3078119069
:1024D00066280BD013DC58287DD009DC00287BD07F
:1024E0004528F6D04628F4D047281AD1A5E118E0AF
:1024F000632835D0642870D0652812D19DE17028FA
:102500006CD008DC6728F1D069287BD06E280DD00C
:102510006F2806D1BAE073282ED0752871D078289C
:1025200059D01A9A199990476D1C7EE16002400FAC
:10253000022809D003280DD00428189801680DD06E
:102540000D60001D189070E11898EA1701680D6081
:102550004A60F6E7189801680D80F2E70D70F0E721
:1025600018986A4601781172001D18900020507268
:1025700002A80090012005E0189802C818900020D9
:102580000091C04361070DD5002101E00199491C6C
:102590000191B94212DA8142F8DB009A515C0029BC
:1025A000F4D10BE0002101E00199491C0191814225
:1025B000FADB019A0099895C0029F5D10199049808
:1025C0001A9B471A21463846199A00F097FA019942
:1025D000401945180BE04FE02CE113E04EE0009865
:1025E00000990078491C00911A9A1999904701980E
:1025F000401E0190401CF2D1214638461A9B199A80
:1026000010E137E00A200021009001916002410FA3
:10261000022907D0189A01CA1892C21794460329B2
:1026200008D00AE01898C01DC108C90005C9189152
:10263000944607E000B2C2179446042902D140B282
:10264000C1178C4600226146944506DA0A460021ED
:10265000404291418C462D2102E0210504D52B21D9
:102660006A461173012103E0E10701D02021F7E759
:10267000029155E00A200AE0102008E010200090A6
:102680000021042004430191082703E008200021D1
:10269000019100906002410F022907D0189A01CAE7
:1026A000189200229446032908D008E01898C01D0B
:1026B000C108C90005C91891944603E080B20429F5
:1026C00000D1C0B200210291210729D511997029AA
:1026D00006D0009A1021019B4A401A4305D00EE013
:1026E00040216A461173012108E06146014306D08A
:1026F00030216A4611731199517302210291009A97
:102700000821019B4A401A430AD16146014301D185
:10271000610705D530216A46117301217F1E0291A0
:102720001199582904D035A10E910DA90D910DE0F4
:1027300037A1F9E76146019B009AFDF76BFE0E9BFE
:102740008C469B5C0D9A521E0D921370614601439C
:10275000F0D10D9805A9081A20300190600703D523
:1027600001200004844300E001270198874201DD35
:10277000381A00E0002001990090411802980918C9
:102780000498401A0490E00306D421461A9B199A33
:10279000049800F0B3F94519002706E003A81A9A37
:1027A000C05D199990476D1C7F1C02988742F5DB2C
:1027B000E0030CD521461A9B199A049800F09EF963
:1027C000451904E01A9A3020199990476D1C009918
:1027D000481E00900029F5DC08E00D980D9900785E
:1027E000491C0D911A9A199990476D1C0199481E20
:1027F00001900029F1DC63E1092801003031323316
:10280000343536373839616263646566000000002C
:102810003031323334353637383941424344454616
:102820000000000000F05AF94519761C30780028A5
:1028300000D0E2E528461BB0F0BD600700D40627B3
:102840001898C01DC108C90048680A680831C30F3C
:10285000DB071891190001D09CA108E0210501D5E2
:102860009BA104E0E10701D09AA100E09AA14300F6
:1028700011985B08109165280CD006DC452809D01A
:1028800046281DD0472841D141E0662818D0672846
:102890003CD13CE00021112F01DB112000E0781C2D
:1028A0000191009008A911A8FFF7E8FC1399059180
:1028B0000021119A15927F1C12980197009150E007
:1028C0000120C00703900120019008A9009711A8DA
:1028D000FFF7D4FC139A149905920022119B0092E1
:1028E00012981593059A0192002901D0104602E032
:1028F000791C40180190381A01D5019804E0404233
:10290000401E0090781C0190C01B029043E0012FF4
:1029100000DA01270021112F01DD112000E03846E7
:102920000191009008A911A8FFF7A8FC139905913F
:10293000119A0021129815920091019721070CD449
:102940000599B94201DB019900E00191012904DDFB
:10295000159A491E515C302906D0B84201DA011D92
:1029600005DA0121029115E00199491EEDE70028E1
:1029700005DC0099411800910199091A03E0019AB8
:10298000411C914200DD01910099401A401C0290C7
:102990000120C0070390200706D4029901988142C4
:1029A00002DB0020C043029000206946C87707AFD1
:1029B000012103980337C907884224D002201190CF
:1029C0002B201290039800280CDA404203902D200F
:1029D000129007E00A210398FDF7BEFB30317F1EFD
:1029E000039039701199481E11900029F2DC039868
:1029F0000028EFD1791E1298087030782021084005
:102A00004530BF1E387006A8C01BC01D039010982B
:102A10000078002800D00120019941180298C017C1
:102A20000918039809180498401A401E0490E003FE
:102A300006D421461A9B199A049800F05FF84519AC
:102A400010980078002803D01A9A199990476D1CA5
:102A5000E00324D521461A9B199A049800F04EF8F9
:102A600045191CE00098002807DB0099059888426A
:102A700003DD1598405C199901E0199930201A9AE4
:102A8000904700986D1C401C00900298401E0290D8
:102A9000002804D11A9A2E20199990476D1C01998B
:102AA000481E01900029DDDC05E038781A9A7F1C69
:102AB000199990476D1C0399481E03900029F4DC76
:102AC00021461A9B199A0498ACE600002D000000DC
:102AD0002B0000002000000000000000F8B50446B4
:102AE00000251E461746880404D405E039462020F8
:102AF000B0476D1C641EF9D52846F8BDFFB50446E5
:102B0000002581B01E46C80301D5302700E02027EC
:102B1000880404D505E038460399B0476D1C641E4F
:102B2000F9D5284605B0F0BD0A68531C0B6010703B
:102B30007047000070B50A4D00236C693021AA6906
:102B40004843A9699142FCD0914201D2521A01E056
:102B5000661AB218D3180A468342F2D370BD000039
:102B600000E000E0F8B5174E054630680321090380
:102B70008843306030680121090308433060114800
:102B80008027203007810024280602D54020B0612C
:102B900003E00C494020203108816806050E012021
:102BA000FFF7C8FFB7610120FFF7C4FF05482030D9
:102BB00007810120FFF7BEFF641CE4B2082CE3D3B9
:102BC000F8BD00000004004870B50D4801680322FC
:102BD0001203914301600168012212031143016055
:102BE00040268661802585610120FFF7A3FF044C04
:102BF000203426810120FFF79DFF258170BD000054
:102C00000004004870B50D4C206803210903884377
:102C100020602068012109030843206007488025BF
:102C200020300581402606810120FFF783FFA56142
:102C3000A6610120FFF77EFF70BD00000004004880
:102C400070B50C4C2068032109038843206020687C
:102C500020604020A0610120FFF76CFF8025A56166
:102C60000120FFF767FF208A0248203005810020FD
:102C700070BD000000040048FFF7DEF8FEF74EFECE
:102C8000FEF704FEFDF7B4FEFEF768FBFEF7ECFB73
:102C9000FEF7F0FAFFF782F9FEF7F0FFFEF7C8FF44
:102CA000FFF742F9FEF76AFAFEE70000F8B5664C56
:102CB000A07C00287ED065486549826C8A4201DD8F
:102CC000012100E00021634B61739A4201DA012285
:102CD00000E00022A273604D036DAB4201DD0123D1
:102CE00000E000232374C06C5C4DA84201DD01208C
:102CF00000E000205A4D6074002905D1002A03D15C
:102D0000002B01D100280AD0FEF786FE00202060AB
:102D10000220A8611020A8612020A86105E003CC52
:102D2000083C884200D8401C2060484880384088D1
:102D3000FDF713FB4B4FB968FDF775FAF968FDF71E
:102D40007AFA0646414880388088FDF706FB7968A4
:102D5000FDF771FA0746FF20C005C64200D30026E2
:102D600041493046FDF767FA3946FDF760FAFF2121
:102D7000C9050746C84200D3002703CC083C884257
:102D800010D13A4800F036F9394800F033F9002004
:102D9000A060FEF733FEA068FEF74EFE3049022029
:102DA0002031088103CC083C88420BD3207B0028CB
:102DB0000DD000E00AE0012827D000202073A06891
:102DC000FEF73AFE2B494888401C4880F8BD27484A
:102DD0003A46016800F057F92549A060C8620968C1
:102DE0003046FDF703FB01D3012000E000202073F3
:102DF000204832214088FDF7AFF90029DFD118497A
:102E000010202031088120201CE01948324601683A
:102E100000F039F91549A060C86209683846FDF725
:102E2000EFFA01D3012000E0002020731148322185
:102E30004088FDF791F90029C1D1094920202031AE
:102E400008811020A861BAE7DC01002004010020FD
:102E500000006242000030410000084100004C4286
:102E600000040048F0010020CDCC4C3D640100205E
:102E7000A001002018000020214F00242148FE6CF2
:102E800000783D6D00281CD01E480021017080781C
:102E9000002809D01C481023027803216C20FEF77B
:102EA000D3FB1023202208E01023202203216C20D2
:102EB000FEF7CAFB14481023027806216C20FEF7A7
:102EC000C3FB1048417800290BD08178002901D03C
:102ED000866800E0C568641CE4B2052C01D90024B2
:102EE00044700A49897C002901D18668C56830464A
:102EF0002946FEF78BFC322000F01EFBBEE70000E7
:102F0000040100207400002018000020DC010020D3
:102F10001CB501218804FEF7C3FD0C4C402120465E
:102F2000FEF7A4F980212046FEF7A0F9C021009108
:102F300001216A4611719171032050710020D071F6
:102F400069462046FEF748F91CBD00000004004811
:102F50001024022701251E4EFDF718FEFEF7D8F9B2
:102F6000002830D00921C9068C61022804D001282C
:102F700017D0032819D026E01649887C281A0006A5
:102F8000000E887404D014480781002008601AE0FD
:102F9000FEF742FD1048203887618461202181615D
:102FA00011E0B078281AB0700CE00C4871688142CA
:102FB00004D17F20C0053C21706001E03E2170609B
:102FC000074801703570052000F0B6FAC4E700002C
:102FD00074000020DC01002020040048CDCCCC3D52
:102FE0001800002010B500F06BFB012801D000F0A4
:102FF0002DFB10BD002141608160C160C162816212
:103000007047F8B5876B8669044639463046FDF748
:103010004FF9054638466169FDF74AF97F21C90530
:10302000FDF7B0F82946FDF7ADF825692946FDF70B
:1030300002F9E06101213046FDF778F93946FDF7E4
:1030400037F97F21C905FDF79DF82946FDF7F3F80B
:10305000206231462846FDF7EEF83946FDF728F99B
:103060006062F8BD002141608160C160C16281621F
:10307000016001634163816301614161816141627A
:103080000162C1617047F8B50B4604461146184607
:10309000FDF7C9F860600546E168606AFDF7CBF8A6
:1030A0000746A168206AFDF7C6F806462946E0698A
:1030B000FDF7C1F83146FDF7B6F83946FDF762F87D
:1030C000A062E16AFDF75EF80546216BFDF798F90D
:1030D00000D2256B616B2846FDF788F900D2656B3D
:1030E000A068E0606068E562A0602846F8BD000066
:1030F000F8B5134E0F46F56804463068001D00F021
:1031000083F9601C07D1002F05D031680D48091DD7
:1031100000F0B2F9F8BD30682C1944603168AC4257
:1031200004D2B06B091D00F08FF9F8BD706B091D5A
:1031300000F08AF9B06A8442F7D2B462F8BD0000A8
:1031400034000020080C0020F8B5054600F0A0F976
:10315000294EB068401CB0603068284F002803D06A
:103160007069002827D02CE03560B068012828D18C
:10317000002414206043C01900F058F9641C072C87
:10318000F7D31E488C3000F051F91C48A03000F0F5
:103190004DF91A48B43000F049F91848C83000F029
:1031A00045F91648DC3000F041F914488C30706362
:1031B0001430B06305E03068E96AC06A884200D81C
:1031C0003560706A401C7062E86A3169884200D9D3
:1031D000306114214843C019291D00F04DF900F059
:1031E00063F97069002806D03068E96AC06A8842CD
:1031F00001D200F095F9F8BD340000202C0B00201E
:1032000070B5134E134D1EE000F0D4F9306800285D
:1032100005D0002400F0C2FA002C14D101E00124F2
:10322000F8E700F035F9F068C468201D00F0ECF80C
:10323000A868401EA8606868401E686000F034F905
:10324000204600F009F868680028DDD170BD000054
:10325000F40B00203400002010B50446006B00F091
:1032600031F9204600F02EF910BD0000044CFFF7A4
:10327000C7FF20680128FAD900F052F9F7E70000EB
:103280002C0B0020FFB581B00C9C9000236B001F1D
:103290001818C6080A9DF600700701D072B6FEE73E
:1032A00023180A5C20331A750A5C002A02D0401CDD
:1032B0001028F5D32046403000270090C770072D16
:1032C00000D30625E562A764201D656400F0B9F807
:1032D0002046183000F0B5F824610720401B6462D6
:1032E000A061E764009807743046049A019900F0E1
:1032F0007BF820600B98002800D0046005B0F0BD7A
:103300000648416B0968002905D0416BC968C96846
:103310004968816270470021C943FAE73400002000
:1033200003480068401C72B600D0FEE7FEE70000CC
:1033300070000020F8B50446002500F03BF927494D
:103340000E460A4648680836103200280BD1244839
:103350000027C008C00081C6224B176053600CC014
:103360000120083E4860002C07D00834600704D0D4
:103370006007400F0823181A04191A4B601E5B1EC1
:10338000984227D2154F3068083701E007461846A3
:103390004368A34202D20368002BF7D1904219D0B0
:1033A0003D6802683A6042680835121B102A0DD940
:1033B00006197260094A44600832746800E01A46CF
:1033C00013685F68A742FAD33360166040680A68E2
:1033D000101A086000F0E2F92846F8BD1C00002031
:1033E000080200202409000010B50124031F240650
:1033F0001C601B1F1960191F024B0B6014394038E9
:103400000A6010BD213300084368826801699A6030
:10341000836842685A604A68824201D182684A6081
:10342000002202610868401E0860704701460831AA
:1034300000224160D243C1608260016100210160CD
:10344000704700210161704730B50C68621C02D0E2
:103450000246083202E0026904E01A4653681D6819
:10346000A542FAD953684B6099608A60516008613F
:103470000168491C016030BD42684A6093688B60F6
:1034800093685960916008610168491C0160704748
:1034900072B604480168491C0160BFF34F8FBFF347
:1034A0006F8F70477000002005490868002804D01D
:1034B000401E086000D162B6704772B6FEE7000099
:1034C0007000002010B5002815D00446083C00F01C
:1034D00071F80949606800E011460A685368834240
:1034E000FAD3226004480C600838616802688918C1
:1034F000016000F053F910BD2400002010B506480B
:103500007D21C9000068FCF727FE0449401E486180
:103510000720086110BD00000000002000E000E06E
:103520000120044900074860BFF34F8FBFF36F8F3E
:103530007047000000ED00E010B502000FD0094810
:10354000006B002801D072B6FEE700F033F80021CE
:103550001046FFF7CDFD00F021F9002801D1FFF75B
:10356000DFFF10BD340000201CB50E480024019080
:10357000234680220CA100940D4800F079F8012820
:1035800003D0401C0CD172B6FEE772B6002105488C
:10359000C9432C38816201214161C46000F03EF8CA
:1035A0001CBD00006000002049444C4500000000A4
:1035B0006D3200080248016B491C0163704700002E
:1035C0003400002010B5134B186B002802D00120E6
:1035D000D86110BD0020D86118690F4902E00028A9
:1035E00015D0401E142242438A58002AF7D01422D4
:1035F000424351184A680C46526808344A60A24255
:1036000001D152684A60D1681960186110BD72B664
:10361000FEE70000340000202C0B002010B5094804
:10362000016AFF22120411430162016A120211436E
:103630000162FFF763FF044900200860FCF742FDC8
:10364000002010BD00ED00E07000002010B5FCF778
:103650004DFD044600F044F8002803D00120034942
:10366000000748602046FCF745FD10BD00ED00E076
:10367000FFB585B0164690000F9FFFF75BFE050073
:103680001AD05420FFF756FE040012D02563002103
:103690000E9803910197009002943246089B069978
:1036A0000598FFF7EFFD2046FFF74EFD012009B01A
:1036B000F0BD2846FFF706FF0020C043F7E70000F3
:1036C00006484169002904D0006B002803D000207F
:1036D000704701207047022070470000340000202E
:1036E000F8B52C4F0026386B002808D0B869401C6C
:1036F000B861F869002800D001263046F8BDFD68A1
:103700006D1CFD600ED1786B0068002801D072B688
:10371000FEE7786BB96B7963B863386A401C38622E
:10372000FFF7EEFDB86A85420AD3786B006800287F
:1037300010D0786BC068C468606885420DD2B862EA
:1037400038681421C06A4843134908580128D0D961
:103750000126CEE70020C043F1E7201DFFF754FE0D
:10376000A06A002803D020461830FFF74DFEE06A1B
:103770003969884200D93861142148430649401804
:10378000211DFFF779FEE06A3968C96A8842CCD307
:103790000126CAE7340000202C0B0020F8B5284D84
:1037A0000024286B2746002808D0FFF771FE286BFD
:1037B000401E2863286B002802D03CE072B6FEE76A
:1037C000A868012600281BD135E0C068C4682046DF
:1037D0001830FFF719FE201DFFF716FEE06A296971
:1037E000884200D928611421484316494018211DF8
:1037F000FFF742FEE06A2968C96A884200D3EE6199
:103800001048B43001680029DFD1002C01D0FFF747
:1038100077FDAC69002C08D0FFF762FF002800D0CC
:10382000EE61641EF8D10020A861E869002802D08A
:103830000127FFF775FEFFF737FE3846F8BD000099
:10384000340000202C0B00200000000000000000CD
:103850000000000000000000000000F80000000070
:10386000000000333000000000100C06100C0600B1
:10387000000000000000000040C07840C078400018
:10388000043F04043F040400007088FC083000007A
:10389000001820FF211E0000F008F000E0180000D2
:1038A00000211C031E211E0000F00888700000008B
:1038B0001E2123241927211010160E0000000000DD
:1038C0000000000000000000000000E018040200FA
:1038D000000000071820400000020418E00000006B
:1038E0000040201807000000404080F08040400069
:1038F0000202010F01020200000000F000000000BF
:103900000101011F01010100000000000000000092
:1039100080B0700000000000000000000000000007
:103920000001010101010101000000000000000090
:10393000003030000000000000000000806018042B
:10394000006018060100000000E010080810E00008
:10395000000F102020100F00001010F800000000D1
:103960000020203F20200000007008080888700018
:103970000030282422213000003008888848300098
:103980000018202020110E000000C02010F80000B8
:1039900000070424243F240000F808888808080051
:1039A0000019212020110E0000E010888818000066
:1039B000000F112020110E0000380808C838080038
:1039C0000000003F000000000070880808887000B8
:1039D000001C222121221C0000E010080810E00039
:1039E0000000312222110F00000000C0C0000000C2
:1039F00000000030300000000000008000000000E7
:103A000000008060000000000000804020100800DE
:103A100000010204081020004040404040404000A7
:103A20000404040404040400000810204080000082
:103A30000020100804020100007048080808F00087
:103A40000000003036010000C030C828E810E00057
:103A50000718272423140B000000C038E0000000E2
:103A6000203C23020227382008F88888887000004C
:103A7000203F202020110E00C03008080808380020
:103A8000071820202010080008F808080810E00097
:103A9000203F202020100F0008F88888E808100038
:103AA000203F20202320180008F88888E80810000C
:103AB000203F200003000000C03008080838000044
:103AC00007182020221E020008F808000008F80845
:103AD000203F210101213F20000808F808080000CC
:103AE0000020203F2020000000000808F8080800FF
:103AF000C08080807F00000008F888C02818080077
:103B0000203F20012638200008F8080000000000AF
:103B1000203F20202020300008F8F800F8F80800A6
:103B2000203F003F003F200008F830C00008F808A0
:103B3000203F200007183F00E01008080810E000B0
:103B40000F10202020100F0008F808080808F000C7
:103B5000203F210101010000E01008080810E000EA
:103B60000F18242438504F0008F88888888870007F
:103B7000203F2000030C302000708808080838001F
:103B80000038202121221C00180808F80808180015
:103B90000000203F2000000008F808000008F80896
:103BA000001F202020201F000878880000C8380847
:103BB000000007380E010000F80800F80008F800BF
:103BC000033C0700073C0300081868808068180859
:103BD00020302C03032C30200838C800C8380800D7
:103BE0000000203F2000000010080808C838080026
:103BF0002038262120201800000000FE02020200CA
:103C00000000007F40404000000C30C00000000079
:103C1000000000010638C00000020202FE000000A1
:103C2000004040407F000000000004020202040047
:103C30000000000000000000000000000000000084
:103C4000808080808080808000020204000000006C
:103C50000000000000000000000080808080000064
:103C60000019242222223F2008F800808000000052
:103C7000003F112020110E00000000808080000015
:103C8000000E112020201100000000808088F80024
:103C9000000E112020103F20000080808080000056
:103CA000001F222222221300008080F088888818BA
:103CB0000020203F202000000000808080808000C5
:103CC000006B94949493600008F80080808000005A
:103CD000203F210000203F20008098980000000035
:103CE0000020203F20200000000000809898000065
:103CF00000C08080807F000008F800008080800085
:103D0000203F24022D302000000808F800000000A9
:103D10000020203F20200000808080808080800064
:103D2000203F20003F20003F8080008080800000F6
:103D3000203F210000203F20000080808080000084
:103D4000001F202020201F008080008080000000B5
:103D500080FFA12020110E000000008080808000E4
:103D6000000E112020A0FF808080800080808000D5
:103D700020203F2120000100000080808080800002
:103D80000033242424241900008080E08080000077
:103D90000000001F202000008080000000808000C4
:103DA000001F202020103F20808080000080808025
:103DB00000010E30080601008080008000808080B5
:103DC0000F300C030C300F000080800080808000DA
:103DD0000020312E0E312000808080000080808005
:103DE00080818E70180601000080808080808000B5
:103DF0000021302C2221300000000000807C0202D3
:103E000000000000003F404000000000FF000000F4
:103E100000000000FF0000000002027C80000000A3
:103E20000040403F000000000006010102020404BF
:103E300000000000000000000000F010101010FF53
:103E400010101010F0000000000000000000000042
:103E5000000000000000000000000F04040404FF44
:103E6000040404040F000000000000000000000033
:103E700000000000000000000000F888888888FF2B
:103E800088888888F800000000000000000000001A
:103E9000000000000000000000001F080808087F64
:103EA000888888889F80F0000000000000000000E3
:103EB00000000000000000000000FE0282828282FA
:103EC000FA8282828282020000000000000000006C
:103ED000000000000000000080601F4040404040A3
:103EE0007F404044584040000000000000000000B7
:103EF00000000000000000001060028C00446454C8
:103F00004D46445464C4040000000000000000005A
:103F1000000000000000000004047E0180403E001C
:103F200000FE00007E80E0000000000000000000B5
:103F30000000000000000000583F000800000020C2
:103F4000740000005E220008CC3F000874000020CE
:103F5000AC0D00006E220008006CDC0200000000C6
:103F60000000000001020304060708090000000029
:103F70003E000000240900000000000000000000D6
:103F80000000000000000000000000000000000031
:103F90000000000000000000000000000000000021
:103FA0000000000000000000000000000000000011
:103FB0000000000000000000000000000000000001
:0C3FC0000000000000000000AAAAAAAA4D
:04000005080000B13E
:00000001FF
